:020000040800F2
:1000000000400120CD3400086D3400086F34000832
:1000100071340008733400087534000800000000D3
:100020000000000000000000000000001124000893
:100030007734000800000000B1240008793400087B
:100040001535000815350008153500081535000868
:100050001535000815350008153500081535000858
:100060001535000815350008153500081535000848
:100070001535000815350008153500081535000838
:100080001535000815350008153500081535000828
:100090001535000815350008153500081535000818
:1000A0001535000815350008153500081535000808
:1000B00015350008153500081535000815350008F8
:1000C00015350008153500081535000815350008E8
:1000D00015350008153500081535000815350008D8
:1000E00015350008153500081535000815350008C8
:1000F000153500080000000015350008153500080A
:1001000015350008153500081535000815350008A7
:1001100015350008153500081535000800000000E9
:10012000153500080000000000000000000000007D
:0C01300000000000000000005FF808F173
:1001400010B5054C237833B9044B13B10448AFF311
:1001500000800123237010BD8800002000000000F3
:100160002437000808B5034B1BB103490348AFF31C
:10017000008008BD000000008C000020243700082B
:1001800010B50446074B1868074BA3FB00308009E5
:1001900000F07AF8002221464FF0FF3000F040F8DE
:1001A000002010BD20000020D34D621008B50320B0
:1001B00000F024F80F20FFF7E3FF03F081F80020A0
:1001C00008BD0000024A136801331360704700BF86
:1001D00024120020014B1868704700BF2412002031
:1001E00010B582B00190FFF7F5FF0446FFF7F2FF6C
:1001F000001B019B9842F9D302B010BD074AD36897
:1002000023F4E0631B041B0C000200F4E0601843BD
:1002100040F0BF6040F40030D060704700ED00E077
:1002200030B4174BDB68C3F30223C3F10704042C7B
:1002300028BF04241D1D062D18D9033B4FF0FF35A0
:1002400005FA04F421EA0401994005FA03F322EACD
:100250000303194300280BDB0901C9B200F1604018
:1002600000F5614080F8001330BC70470023E5E7DB
:1002700000F00F000901C9B2024B1954F4E700BFA6
:1002800000ED00E014ED00E00138B0F1807F0AD20B
:10029000064B5860064AF02182F82310002098602F
:1002A00007221A6070470120704700BF10E000E08D
:1002B00000ED00E0F0B482B0002336E0062400E058
:1002C0000024B4403C430235624E46F82540624C5F
:1002D0002568D44304EA05064F6817F4803F01D02F
:1002E00042EA05065C4D2E606D6804EA05064F681B
:1002F00017F4003F01D042EA0506574D6E60AD6825
:1003000004EA05064F6817F4801F01D042EA05068B
:10031000514DAE60ED682C404E6816F4001F01D0C0
:1003200042EA05044C4AD46001330A6832FA03F405
:1003300000F08C8001249C402240F5D04D68022DB5
:1003400001D0122D10D1DE08083650F826C003F077
:100350000705AF000F25BD402CEA050C0D69BD4017
:1003600045EA0C0540F8265006685F000325BD40AD
:10037000ED4305EA060C4E6806F00306BE4046EA69
:100380000C0606604E6806F1FF3CBCF1010F03D974
:10039000112E01D0122E10D1866805EA060CCE6807
:1003A000BE4046EA0C068660466826EA04044E68AB
:1003B000C6F300169E4026434660C46825408C68FC
:1003C000BC402C43C4604C6814F0805FACD0234C1C
:1003D000256A45F001052562246A04F001040194B0
:1003E000019C9D08AE1C1B4C54F8267003F00304BE
:1003F000A6000F24B44027EA0407194CA0423FF49A
:100400005FAF04F58064A04216D004F58064A0427A
:1004100014D004F58064A04212D004F58064A04298
:1004200010D004F58064A0420ED004F58064A04290
:100430003FF444AF072444E7012442E7022440E7A5
:1004400003243EE704243CE705243AE702B0F0BC6D
:10045000704700BF00000140000401400038024026
:10046000000002400369194201D1002070470120B9
:10047000704712B90904816170478161704743690F
:1004800059404161704703685A6912F4806F0DD07A
:100490006FF480625A610423036400230363202203
:1004A00080F83D2080F83C300120704700207047E4
:1004B000F8B506460C4617461D461EE02DB1FFF75F
:1004C00089FE069BC01AA84217D900233363202255
:1004D00086F83D2086F83E3086F83C3003201AE04E
:1004E00033685B6924EA03039BB2B3FA83F35B09C5
:1004F0009F420FD1B5F1FF3FE0D1C4F30743012B79
:10050000EED033689B6924EA03039BB2B3FA83F30A
:100510005B09EDE70020F8BDF8B504460D46164628
:100520001F4632E01A6842F400721A6023686FF4C2
:1005300080625A610423236400232363202284F809
:100540003D2084F83C3001202DE026B1FFF742FE2B
:10055000C01BB04219D900232363202284F83D2018
:1005600084F83C3003201EE023685B6925EA03031E
:100570009BB2003318BF0123A3B123685A6912F458
:10058000806FCFD1B6F1FF3FDFD1C5F30743012B19
:10059000EAD023689B6925EA03039BB2003318BFA6
:1005A0000123E9E70020F8BD70B504460D46164664
:1005B00023685B6913F0800F19D12046FFF763FFB2
:1005C000B8B9B5F1FF3FF3D025B1FFF703FE801BAB
:1005D000A842EDD9236C43F0200323640023236356
:1005E000202284F83D2084F83C30032000E00020E5
:1005F00070BD0120FCE700002DE9F04184B0044605
:100600000E46174698460B9D0268136843F48073A4
:10061000136000950A9B00224FF00111FFF748FF7D
:10062000002847D1236806F0FE061E612B460A9A71
:1006300026492046FFF770FF20B1236C042B3ED1E2
:10064000012338E00023039323685A6903929B69CE
:100650000393039B2A460A992046FFF7A5FF03460A
:1006600048B1236C042B2CD12268136843F4007327
:10067000136001231FE0B8F1010F13D023683A0A79
:100680001A612A460A992046FFF78EFF034668B191
:10069000236C042B17D12268136843F40073136092
:1006A000012308E02268FFB2176104E02268FFB26C
:1006B000176100E00323184604B0BDE8F08103236E
:1006C000F9E70323F7E70323F5E700BF0200010082
:1006D00070B504460D46164623685B6913F0040F97
:1006E00019D12046FFF7CFFEB8B9B5F1FF3FF3D0DF
:1006F00025B1FFF76FFD801BA842EDD9236C43F0B5
:100700002003236400232363202284F83D2084F8FF
:100710003C30032000E0002070BD0120FCE7000019
:10072000002800F0A28070B5044690F83D30002B00
:1007300061D000F0F5FE4F4B984240F298802423A0
:1007400084F83D302268136823F0010313604A4B9C
:10075000A3FB00239B0C21684A6822F03F021A4346
:100760004A6025682A6A22F03F02666843498E4241
:1007700046D8013313432B622568EB6923F44F43BA
:1007800023F0FF0362683D498A4243D85200B0FB20
:10079000F2F0C0F30B02032A00D804201843E861EA
:1007A00021680B6823F0C003E269206A0243134307
:1007B0000B6021688B6823F4034323F0FF03226955
:1007C000E068024313438B602168CB6823F0FF038A
:1007D0006269A06902431343CB602268136843F047
:1007E0000103136000202064202384F83D3020633F
:1007F00084F83E0070BD80F83C3002F08BFD98E735
:100800004FF4967101FB03F31D49A1FB03139B09F0
:100810000133AFE7A6688EB902EB4201B0FBF1F1FC
:10082000C1F30B01B1FA81F14909E1B996B902EBC3
:100830004202B0FBF2F040F40040AFE702EB82016D
:1008400001EB8101B0FBF1F1C1F30B01B1FA81F1D0
:100850004909EAE702EB820202EB8202B0FBF2F006
:1008600040F440409AE7012098E7012070470120BA
:10087000C0E700BF7F841E0083DE1B43A08601000B
:10088000D34D62102DE9F04383B004460F469046E5
:100890009946BDF82C60FFF79DFC94F83D30DBB223
:1008A000202B40F0A48005460A9B002B00F0A4807A
:1008B0000EB901239CE00090192301224FF0021190
:1008C0002046FFF7F5FD002840F0988094F83C3072
:1008D000012B00F09580012384F83C3023681A68CE
:1008E00012F0010F03D11A6842F001021A60226867
:1008F000136823F400631360212384F83D30402300
:1009000084F83E30002323640A9B636266853F4B74
:10091000E362638D238501950C9B00934B46424611
:1009200039462046FFF768FEB0B1236C042B04D192
:10093000002384F83C3001235AE0002384F83C3043
:10094000032355E0236C042B5CD12268136843F425
:100950000073136001234BE0238D002B28D02A461F
:100960000C992046FFF720FE0028EBD1636A5A1C41
:10097000626222681B781361238D013B9BB2238541
:10098000628D013A92B262852268516911F0040FBA
:10099000E2D0002BE0D0636A591C61621B781361BE
:1009A000238D013B2385638D013B9BB26385D3E798
:1009B0002A460C992046FFF78BFE034648B1236C6C
:1009C000042B21D12268136843F4007313600123C0
:1009D0000EE021680A6842F400720A60202284F85E
:1009E0003D20002284F83E2084F83C2000E00223D1
:1009F000184603B0BDE8F0830123F9E70223F7E7C7
:100A00000223F5E70323F3E70323F1E70000FFFFE9
:100A100082B0214B9B6813F0F00F2CD11E4B5B6A08
:100A200013F0805F08D01D4B1B6803F4C053B3F56F
:100A3000C05F14D000211FE0174A536A43F080536F
:100A40005362536A03F080530193019B134B1B685D
:100A500003F4C053516A21F080515162E7E7B0F5C9
:100A6000404F01D0002107E00D4A136843F0040312
:100A70001360012100E00021094A136823F00103FB
:100A80000B431360136803F001038B4202D0012073
:100A900002B070470020FBE70038024000700040C1
:100AA000003C024070B582B00446036813F0010FA9
:100AB00037D0754B9B6803F00C03082B1AD0724B90
:100AC0009B6803F00C030C2B0FD06368012B66D0DE
:100AD000002B40F088806C4B1A6822F480321A6038
:100AE0001A6822F480221A605EE0674B9B6813F458
:100AF000803FEAD04FF4003393FAA3F3624B1968B6
:100B00004FF4003393FAA3F3B3FA83F303F01F0314
:100B1000012202FA03F30B4203D06368002B00F0BA
:100B20007883236813F0020F00F0BF80564B9B6858
:100B300003F00C03042B00F09080534B9B6803F0F0
:100B40000C030C2B00F08380E368002B00F04B813A
:100B5000012292FAA2F3B3FA83F303F1845303F56B
:100B60008E139B001A60FFF735FB0546022393FAAC
:100B7000A3F3454B1968022393FAA3F3B3FA83F363
:100B800003F01F03012202FA03F30B4240F01B8122
:100B9000FFF720FB401B0228E8D9032040E33A4A34
:100BA000136843F480331360636893B3FFF712FB59
:100BB00005464FF4003393FAA3F3334B19684FF40F
:100BC000003393FAA3F3B3FA83F303F01F03012274
:100BD00002FA03F30B42A4D1FFF7FCFA401B64288E
:100BE000E7D903201CE3052B09D0274B1A6822F410
:100BF00080321A601A6822F480221A60D4E7224BED
:100C00001A6842F480221A601A6842F480321A602C
:100C1000CAE7FFF7DFFA05464FF4003393FAA3F370
:100C2000194B19684FF4003393FAA3F3B3FA83F323
:100C300003F01F03012202FA03F30B423FF471AFEA
:100C4000FFF7C8FA401B6428E6D90320E8E20E4B00
:100C50009B6813F4803F7FF477AF022393FAA3F3EA
:100C6000094B1968022393FAA3F3B3FA83F303F051
:100C70001F03012202FA03F30B4207D0E3689342F9
:100C800004D00120CCE200BF00380240C1484368D4
:100C900023F4F85321694FF4F85292FAA2F2B2FA0F
:100CA00082F201FA02F213434360236813F0100F3B
:100CB0005CD0B84B9B6813F00C0F40F0D8804FF419
:100CC000007393FAA3F3B34B19684FF4007393FACC
:100CD000A3F3B3FA83F303F01F03012202FA03F331
:100CE0000B4203D0A369002B00F09582206AA94B28
:100CF0005B6803F46043984240F29D80FFF788FEF2
:100D0000002840F08A82A3494B6823F46043226A9A
:100D100013434B604B6823F07F43E0694FF07F4201
:100D200092FAA2F2B2FA82F200FA02F213434B6094
:100D3000236A4FF4604292FAA2F2B2FA82F2D340EE
:100D40005A1C4FF400439340924A926802F0F0021A
:100D5000F02191FAA1F1B1FA81F1CA408E498A5C81
:100D6000D3408E4A13600F20FFF70AFA236813F06E
:100D7000080F00F017816369002B00F0E680012165
:100D800091FAA1F2B2FA82F2854B13449B001960EA
:100D9000FFF720FA0546022393FAA3F27D4A516B2E
:100DA00093FAA3F3B3FA83F303F01F03012202FAC9
:100DB00003F30B4240F0F680FFF70CFA401B0228C9
:100DC000E9D903202CE27348436823F4F8532169DE
:100DD0004FF4F85292FAA2F2B2FA82F201FA02F257
:100DE0001343436061E7012393FAA3F3B3FA83F358
:100DF00003F1845303F58E139B0000221A60FFF762
:100E0000E9F90546022393FAA3F3624B196802231A
:100E100093FAA3F3B3FA83F303F01F03012202FA58
:100E200003F30B423FF441AFFFF7D4F9401B022814
:100E3000E8D90320F4E157494B6823F46043184391
:100E400048604B6823F07F43E0694FF07F4292FA9D
:100E5000A2F2B2FA82F200FA02F213434B60206A65
:100E6000FFF7D6FD00283FF463AF0120D8E1A36966
:100E7000002B3FD04FF4807393FAA3F3B3FA83F3BC
:100E800003F1845303F58E139B0001221A60FFF7D0
:100E9000A1F905464FF4007393FAA3F33D4B19688B
:100EA0004FF4007393FAA3F3B3FA83F303F01F0331
:100EB000012202FA03F30B4206D1FFF78BF9401B24
:100EC0000228E7D90320ABE132494B6823F46043A1
:100ED000226A13434B604B6823F07F43E0694FF075
:100EE0007F4292FAA2F2B2FA82F200FA02F21343BD
:100EF0004B603BE74FF4807393FAA3F3B3FA83F3A9
:100F000003F1845303F58E139B0000221A60FFF750
:100F100061F905464FF4007393FAA3F31D4B19686A
:100F20004FF4007393FAA3F3B3FA83F303F01F03B0
:100F3000012202FA03F30B423FF418AFFFF74AF91C
:100F4000401B0228E6D903206AE1012292FAA2F2AC
:100F5000B2FA82F2124B13449B0000221A60FFF790
:100F600039F90546022393FAA3F20A4A516B93FA20
:100F7000A3F3B3FA83F303F01F03012202FA03F38E
:100F80000B420FD0FFF726F9401B0228EAD90320B5
:100F900046E100BF00380240905F000820000020BA
:100FA000A0C19110236813F0040F00F092809E4BB3
:100FB0005B6A13F0805F1ED19B4B5A6A42F08052ED
:100FC0005A625B6A03F080530193019B0125974BA2
:100FD0001B6813F4807F10D0A368012B21D0002B55
:100FE00043D1914B5A6B22F480725A635A6B22F4AC
:100FF00080625A631AE00025E9E78C4A136843F4DB
:1010000080731360FFF7E6F80646884B1B6813F4FD
:10101000807FE1D1FFF7DEF8801B6428F5D903203B
:10102000FEE0814A536B43F480735363A36893B328
:10103000FFF7D0F806464FF4007393FAA3F27A4A0A
:10104000516B93FAA3F3B3FA83F303F01F03012266
:1010500002FA03F30B423BD1FFF7BCF8801B41F2CD
:1010600088339842E7D90320DAE0052B09D06E4B8C
:101070005A6B22F480725A635A6B22F480625A636C
:10108000D4E7694B5A6B42F480625A635A6B42F45C
:1010900080725A63CAE7FFF79DF806464FF4007363
:1010A00093FAA3F2604A516B93FAA3F3B3FA83F372
:1010B00003F01F03012202FA03F30B4208D0FFF7EB
:1010C00089F8801B41F288339842E7D90320A7E0D2
:1010D000B5BB636A002B00F0A280534A926802F00D
:1010E0000C020C2A00F09E80022B2FD04FF0807350
:1010F00093FAA3F3B3FA83F303F1845303F58E1346
:101100009B0000221A60FFF765F804464FF0007359
:1011100093FAA3F3444B19684FF0007393FAA3F3C7
:10112000B3FA83F303F01F03012202FA03F30B4225
:101130006DD0FFF74FF8001B0228E7D903206FE0BE
:10114000394A536A23F080535362C2E74FF08073E9
:1011500093FAA3F3B3FA83F303F1845303F58E13E5
:101160009B0000221A60FFF735F805464FF0007328
:1011700093FAA3F32C4B19684FF0007393FAA3F37F
:10118000B3FA83F303F01F03012202FA03F30B42C5
:1011900006D0FFF71FF8401B0228E7D903203FE0E5
:1011A00021498B6823F47D03A26AE06A0243206B25
:1011B000024313438B604FF0807393FAA3F3B3FAA7
:1011C00083F303F1845303F58E139B0001221A600D
:1011D000FFF700F804464FF0007393FAA3F3124BA5
:1011E00019684FF0007393FAA3F3B3FA83F303F093
:1011F0001F03012202FA03F30B4206D1FEF7EAFFB6
:10120000001B0228E7D903200AE0002008E00020A4
:1012100006E0012004E0012002E0012000E00020BF
:1012200002B070BD0120FBE70038024000700040B2
:10123000224B986800F00C02082A3CD00C2A13D0EC
:10124000042A0FD01D4B586800F460404FF46043EF
:1012500093FAA3F3B3FA83F3D840431C4FF400404E
:10126000984070471648704700F470114FF47012A0
:1012700092FAA2F2B2FA82F221FA02F211498A5CDF
:1012800000F440004FF4400393FAA3F3B3FA83F35E
:10129000D8400130094B9B6813F4803F05D00A4BBE
:1012A00003FB02F3B3FBF0F07047054B03FB02F3C3
:1012B000B3FBF0F070470448704700BF00380240AD
:1012C0000024F400845F000800127A008D4B1B6834
:1012D00003F001038B4214D201290CD0894A136810
:1012E00023F001030B431360136803F001038B42E7
:1012F00007D001207047834A136843F0040313604A
:10130000ECE770B5036813F0020F06D07E4A9368CD
:1013100023F0F0038468234393600C46054603687A
:1013200013F0010F00F0A3804368022B18D0032BA9
:1013300048D0012B5BD04FF4007292FAA2F2724AAD
:1013400010684FF4007292FAA2F2B2FA82F202F03E
:101350001F02012101FA02F2024215D10120CDE063
:101360004FF4003292FAA2F2674A10684FF400324A
:1013700092FAA2F2B2FA82F202F01F02012101FAFD
:1013800002F2024200F0BB805F498A6822F0030249
:1013900013438B60FEF71EFF06466B68022B39D0A5
:1013A000032B46D0012B53D0574B9B6813F00C0FE7
:1013B0005DD0FEF70FFF801B41F288339842F3D9CE
:1013C00003209BE04FF0007292FAA2F24E4A10689E
:1013D0004FF0007292FAA2F2B2FA82F202F01F0209
:1013E000012101FA02F20242CED1012086E002225E
:1013F00092FAA2F2444A1068022292FAA2F2B2FAD7
:1014000082F202F01F02012101FA02F20242BBD174
:10141000012073E03C4B9B6803F00C03082B26D0A3
:10142000FEF7D8FE801B41F288339842F2D90320A0
:1014300064E0354B9B6803F00C030C2B17D0FEF7D0
:10144000C9FE801B41F288339842F2D9032055E04F
:101450002D4B9B6803F00C03042B08D0FEF7BAFE5B
:10146000801B41F288339842F2D9032046E0254B95
:101470001B6803F00103A34214D9012C0CD0214AAC
:10148000136823F0010323431360136803F001037F
:10149000A34207D0012031E01A4A136843F0040345
:1014A0001360ECE72B6813F0040F06D0164A93681C
:1014B00023F4E063E9680B4393602B6813F0080F93
:1014C00007D0114A936823F46053296943EAC103A2
:1014D0009360FFF7ADFE0C4B9B6803F0F003F02226
:1014E00092FAA2F2B2FA82F2D340084AD35CD84010
:1014F000074B18600F20FEF743FE002070BD01204F
:10150000FCE700BF003C024000380240905F00084A
:1015100020000020014B1868704700BF2000002009
:1015200008B5FFF7F7FF074B9B6803F4E0634FF440
:10153000E06292FAA2F2B2FA82F2D340024AD35C9B
:10154000D84008BD00380240A05F000808B5FFF78A
:10155000E1FF074B9B6803F460534FF4605292FA2B
:10156000A2F2B2FA82F2D340024AD35CD84008BD5C
:1015700000380240A05F00080368B0F1804F0ED031
:101580001C4A90420BD002F58062904207D002F5CF
:101590008062904203D002F57C42904203D123F056
:1015A00070034A681343B0F1804F16D0114A90423D
:1015B00013D002F5806290420FD002F58062904213
:1015C0000BD002F57C42904207D002F58062904237
:1015D00003D002F58062904203D123F44073CA68BD
:1015E000134303608B68C3620B688362012343610A
:1015F000704700BF0004004030B4036A23F00103C9
:101600000362036A4568846924F073040A6822430C
:1016100023F002048B682343456082614A68426379
:10162000036230BC704730B4036A23F010030362D6
:10163000036A4468826922F4E6420D6842EA0522A0
:1016400023F020038D6843EA0513446082614A68F1
:101650008263036230BC704730B4036A23F4807342
:101660000362036A4568C46924F073040A6822436C
:1016700023F400738C6843EA04234560C2614A681E
:10168000C263036230BC704730B4036A23F48053F2
:101690000362036A4468C26922F4E6420D6842EAC2
:1016A000052223F400538D6843EA05334460C26188
:1016B0004A680264036230BC704710B4012303FA25
:1016C00001F4036A23EA04030362036A8A401343B2
:1016D000036210BC7047A8B110B5044690F83530CD
:1016E0005BB1022384F83530211D2068FFF744FFE9
:1016F000012384F83530002010BD80F8343001F02B
:1017000041FEEEE70120704710B504460122006853
:10171000FFF7D3FF2268136843F001031360002032
:1017200010BD10B5044600220068FFF7C6FF23680D
:10173000196A41F21112114203D11A6822F0010212
:101740001A60012384F83530002010BD38B590F8B8
:101750003430012B66D00D460446012380F8343026
:10176000022380F835300C2A1AD8DFE802F0071976
:101770001919201919193419191947000068FFF7A8
:101780003BFF2268936943F00803936122689369E1
:1017900023F00403936122689369E9680B43936122
:1017A000012384F83530002084F8340038BD006807
:1017B000FFF739FF2268936943F40063936122685D
:1017C000936923F48063936122689369E96843EA2B
:1017D00001239361E4E70068FFF73EFF2268D369C5
:1017E00043F00803D3612268D36923F00403D36173
:1017F0002268D369E9680B43D361D1E70068FFF73A
:1018000043FF2268D36943F40063D3612268D3693C
:1018100023F48063D3612268D369E96843EA012332
:10182000D361BDE70220C1E790F83430012B22D00C
:1018300030B4012280F83420022380F83530046867
:10184000636823F070036360046863680D682B436A
:1018500063600468A36823F08003A3600468A3683E
:1018600049680B43A36080F83520002380F83430AA
:10187000184630BC70470220704700002DE9F8433D
:1018800004460268136923F44053C1680B43136193
:1018900083680269134342691343C2691A430168AA
:1018A000CB6823F4164323F00C031343CB60026888
:1018B000536923F4407381690B435361C369B3F5E2
:1018C000004F5CD00268B34B9A4200F00C81FFF7E6
:1018D00027FE00EB800000EB80006568AD00B0FBE8
:1018E000F5F5AD4FA7FB05356D092E01FFF718FE85
:1018F00000EB800000EB80006568AD00B0FBF5F9FF
:10190000FFF70EFE00EB800000EB80006568AD0085
:10191000B0FBF5F5A7FB05356D094FF0640808FB32
:1019200015952D013235A7FB05356D0905F0F0053C
:101930003544FFF7F5FD00EB800000EB80006668A2
:10194000B600B0FBF6F6FFF7EBFD00EB800000EB16
:10195000800063689B00B0FBF3F0A7FB00304009F8
:1019600008FB10684FEA081808F13208A7FB08378F
:10197000C7F3431723682F449F60BDE8F8830268CC
:10198000844B9A4257D0FFF7CBFD00EB800000EB71
:10199000800065686D00B0FBF5F57F4FA7FB05354E
:1019A0006D092E01FFF7BCFD00EB800000EB80000D
:1019B00065686D00B0FBF5F9FFF7B2FD00EB800044
:1019C00000EB800065686D00B0FBF5F5A7FB053501
:1019D0006D094FF0640808FB1595ED003235A7FB43
:1019E00005356D096D0005F4F8753544FFF798FD70
:1019F00000EB800000EB800066687600B0FBF6F636
:101A0000FFF78EFD00EB800000EB800063685B0059
:101A1000B0FBF3F3A7FB03235B0908FB13684FEA52
:101A2000C80808F13208A7FB0837C7F34217236834
:101A30002F449F60A1E7FFF789FD00EB800000EBDA
:101A4000800065686D00B0FBF5F5534FA7FB0535C9
:101A50006D092E01FFF77AFD00EB800000EB80009E
:101A600065686D00B0FBF5F9FFF770FD00EB8000D5
:101A700000EB800065686D00B0FBF5F5A7FB053550
:101A80006D094FF0640808FB1595ED003235A7FB92
:101A900005356D096D0005F4F8753544FFF756FD01
:101AA00000EB800000EB800066687600B0FBF6F685
:101AB000FFF74CFD00EB800000EB800063685B00EB
:101AC000B0FBF3F3A7FB03235B0908FB13684FEAA2
:101AD000C80808F13208A7FB0837C7F34217236884
:101AE0002F449F6049E7FFF731FD00EB800000EBDA
:101AF00080006568AD00B0FBF5F5274FA7FB053505
:101B00006D092E01FFF722FD00EB800000EB800045
:101B10006568AD00B0FBF5F9FFF718FD00EB80003C
:101B200000EB80006568AD00B0FBF5F5A7FB05355F
:101B30006D094FF0640808FB15952D013235A7FBA0
:101B400005356D0905F0F0053544FFF7FFFC00EBA6
:101B5000800000EB80006668B600B0FBF6F6FFF789
:101B6000F5FC00EB800000EB800063689B00B0FB9D
:101B7000F3F3A7FB03235B0908FB13684FEA08187C
:101B800008F13208A7FB0837C7F3431723682F442F
:101B90009F60F2E6003801401F85EB5148B310B555
:101BA000044690F83930FBB1022384F839302268BA
:101BB000D36823F40053D3602046FFF75FFE22680A
:101BC000136923F4904313612268536923F02A03B5
:101BD00053612268D36843F40053D3600020E0636C
:101BE000012384F8393010BD80F8383001F008FC4A
:101BF000DAE701207047842801D0033070470020C5
:101C0000704708B500F0C8F9002008BDF0B585B0F0
:101C10000F46446805680669B0F90800FFF7EBFF56
:101C200003AB019300903B46B2B22946204600F038
:101C300081F9012802D1039805B0F0BD0020FBE72F
:101C400008B5034600B90123184600F0E7FA002062
:101C500008BD08B500F08EFB012801D000F04AFC59
:101C600008BD00F1080343604FF0FF328260C3609B
:101C700003610023036070470023036170474368DA
:101C80004B609A688A609A6851609960086103683D
:101C900001330360704730B40D68B5F1FF3F02D0E7
:101CA00000F1080202E0026904E01A4653681C6869
:101CB000AC42FAD953684B6099608A605160086100
:101CC00003680133036030BC704703694268816870
:101CD00091608268416851605A68824205D0002252
:101CE0000261186801381860704782685A60F6E728
:101CF000074B9B6A1B6833B1054B9A6AD268D2685E
:101D00005268DA627047024B4FF0FF32DA62704776
:101D1000A400002010B50446006B00F03BFD2046F7
:101D200000F038FD10BD2DE9F04780469946089D2A
:101D3000099F0A9C266B02F18042013A06EB82065B
:101D400026F0070600230F2B07D8C85CE21882F89C
:101D50003400CA5C0AB10133F5E7002384F843304C
:101D6000062D00D90625E56265644FF0000AC4F827
:101D700048A0201DFFF780FF04F11800FFF77CFF4B
:101D80002461C5F10705A5616462C4F84CA084F81C
:101D900050A04A464146304600F026FB206007B17D
:101DA0003C60BDE8F087000070B5002407E004EB5C
:101DB0008402930010481844FFF753FF0134062CA7
:101DC000F5D90E4C04F1BC063046FFF74AFF04F18A
:101DD000D0052846FFF745FF04F11400FFF741FF47
:101DE00004F1E400FFF73DFF2046FFF73AFFA6624B
:101DF000C4F8F85070BD00BFD4000020A40000203B
:101E000038B5054600F016FB264BD3F8FC2001320E
:101E1000C3F8FC20D3F8003173B1224BD3F804315E
:101E20008BB9204BD3F80031DA6AEB6A9A420AD8B0
:101E30001C4BC3F8005106E01A4BC3F80051D3F80D
:101E4000FC30012B2AD0174CD4F808310133C4F8E8
:101E50000831EB6A01229A40D4F80C110A43C4F805
:101E60000C2104F1300003EB83039A00291D104478
:101E7000FFF705FF00F000FBD4F804316BB1D4F894
:101E80000031DA6AEB6A9A4207D2074B4FF0805270
:101E90001A60BFF34F8FBFF36F8F38BDFFF784FF1A
:101EA000D1E700BFA400002004ED00E070B50446B7
:101EB0000E461F4BD3F81051D3F800010430FFF742
:101EC00004FF60B91A4BD3F80021D16A012202FA4B
:101ED00001F1D3F80C2122EA0102C3F80C21B4F17C
:101EE000FF3F12D02C44124BD3F800315C60A54266
:101EF00014D80F4DA86AD5F800110431FFF7CBFEB6
:101F0000EB6AA34212D9EC6210E0002EEAD0084836
:101F1000D0F800110431FFF7B2FE07E0044BD3F80C
:101F2000F800D3F800110431FFF7B5FE70BD00BF13
:101F3000A40000202DE9F04385B0074688461546E9
:101F40009946900000F0A0FBF8B10646542000F03E
:101F50009BFB0446A8B10663D4B10023039302940B
:101F60000D9B01930C9B00934B462A4641463846F5
:101F7000FFF7D9FE2046FFF743FF012005B0BDE87B
:101F8000F083304600F006FCE6E74FF0FF30F5E75F
:101F90004FF0FF30F2E7000000B583B0174B01931C
:101FA00000230093802216491648FFF7C3FF01283B
:101FB00005D0B0F1FF3F17D003B05DF804FB4FF040
:101FC000500383F31188BFF36F8FBFF34F8F0E4B16
:101FD0004FF0FF32DA620122C3F804210022C3F875
:101FE000102100F0B3FAE7E74FF0500383F31188B4
:101FF000BFF36F8FBFF34F8FFEE700BFC00100201C
:10200000A85F0008BD220008A4000020034AD2F8FF
:1020100018310133C2F81831704700BFA400002006
:102020002DE9F041404BD3F81831002B6CD13E4BD9
:10203000D3F810510135C3F81051CDB99B6A1B6814
:1020400043B14FF0500383F31188BFF36F8FBFF399
:102050004F8FFEE7344B9A6AD3F8F8109962C3F8B1
:10206000F820D3F820210132C3F82021FFF740FEE9
:102070002D4BDB6AAB423DD900242B4AD2F800310C
:10208000DB6A03EB830399000A44136B012B42D9EB
:10209000012440E00124244B9B6A1B6863B3224B5C
:1020A0009B6ADB68DE6873689D422AD306F10408E8
:1020B0004046FFF70AFEB36A1BB106F11800FFF7AE
:1020C00004FEF36A01229A40174FD7F80C110A4315
:1020D000C7F80C2107F1300003EB83039A00414657
:1020E0001044FFF7CCFDF26AD7F80031DB6A9A4260
:1020F000D0D2D0E70024CEE70B4B4FF0FF32DA62AC
:10210000BBE7094AD362B8E7074AD2F82431013362
:10211000C2F824310024044BD3F8283103B1012440
:102120002046BDE8F08100BFA4000020394BD3F861
:10213000183143B94FF0500383F31188BFF36F8F09
:10214000BFF34F8FFEE770B500F074F9314BD3F851
:102150001821013AC3F81821D3F81831002B54D1B3
:102160002C4BD3F8FC3023B9002400F085F920462D
:1021700070BD0024274B5B692BB3264D2B6ADC68AE
:1021800004F11800FFF7A1FD261D3046FFF79DFD65
:10219000E36A01229A40D5F80C110A43C5F80C21D4
:1021A00005F1300003EB83039A0031461044FFF73A
:1021B00066FDE26AD5F80031DB6A9A42DAD3012281
:1021C000C5F82821D6E70CB1FFF792FD114BD3F8E3
:1021D000244164B1FFF724FF18B10E4B0122C3F86C
:1021E0002821013CF6D10B4B0022C3F82421094BD6
:1021F000D3F828315BB1084B4FF080521A60BFF31F
:102200004F8FBFF36F8F0124AFE70024ADE70024A9
:10221000ABE700BFA400002004ED00E010B5B0B1B2
:1022200004460F4BD3F8183143B14FF0500383F3FA
:102230001188BFF36F8FBFF34F8FFEE7FFF7E6FE06
:1022400000212046FFF732FEFFF770FF38B9054B3B
:102250004FF080521A60BFF34F8FBFF36F8F10BDE6
:10226000A400002004ED00E038B5134BD3F814317E
:102270000BB3FFF7CBFE104BD3F8E440FFF756FF4C
:10228000002CF2D000F0D6F80B4CD4F8F030DD681A
:10229000281DFFF71AFDD4F8FC30013BC4F8FC30D0
:1022A000D4F81431013BC4F8143100F0E5F82846A5
:1022B000FFF730FDD9E738BDA400002008B5FFF7CF
:1022C000D3FF064B1B6B012BF9D9054B4FF0805206
:1022D0001A60BFF34F8FBFF36F8FF0E7A4000020A9
:1022E00004ED00E0224BD3F8183123B1204B01223A
:1022F000C3F8282170471E4A0023C2F82831D2F8BB
:102300000C31B3FA83F3DBB2C3F11F0303EB830099
:1023100081000A44126B42B94FF0500383F31188D5
:10232000BFF36F8FBFF34F8FFEE710B4104A9900D1
:10233000CC18A0001044446B6468446330321944E4
:1023400088000830024494420AD0094903EB830311
:102350009A000A44536BDB68C1F8003110BC704727
:1023600061680348142202FB03025163EDE700BFDA
:10237000A4000020064BD3F804313BB1044BD3F842
:1023800018310BB1002070470220704701207047C0
:10239000A40000200B4B1B68B3F1FF3F08D04FF0A7
:1023A000500383F31188BFF36F8FBFF34F8FFEE7A6
:1023B0004FF0500383F31188BFF36F8FBFF34F8F3C
:1023C000FEE700BF0000002006480068006880F3B8
:1023D000088862B661B6BFF34F8FBFF36F8F00DF1F
:1023E00000BF000008ED00E04FF0807340F8043CAF
:1023F00021F0010140F8081C034B40F80C3C40F868
:10240000202C4038704700BF9523000800000000D2
:10241000074B19680868B0E8F00F80F30988BFF32C
:102420006F8F4FF0000080F311884EF00D0E704753
:10243000A40100204FF0500383F31188BFF36F8F86
:10244000BFF34F8F0A4A136801331360012B00D08A
:102450007047084B1B6813F0FF0FF9D04FF0500383
:1024600083F31188BFF36F8FBFF34F8FFEE700BF79
:102470000000002004ED00E0094B1B6843B94FF059
:10248000500383F31188BFF36F8FBFF34F8FFEE7C5
:10249000013B034A13600BB983F31188704700BFF7
:1024A000000000200000000000000000000000000C
:1024B000EFF30980BFF36F8F0D4B1A6820E9F00F1F
:1024C00010602DE908404FF0500080F31188FFF7AD
:1024D00009FF4FF0000080F31188BDE8084019683B
:1024E0000868B0E8F00F80F30988BFF36F8F70477A
:1024F000A401002008B54FF0500383F31188BFF307
:102500006F8FBFF34F8FFFF78BFD18B1034B4FF069
:1025100080521A60002383F3118808BD04ED00E0A7
:10252000064B1B68064AA2FB03239B09013B054A95
:102530001360054B07221A60704700BF200000207F
:10254000D34D621014E000E010E000E000B583B06D
:102550001E4B1A78D2B20192FF221A701B78DBB29E
:102560008DF803309DF8033003F05003184A1370C0
:102570000723536009E0164A5368013B53609DF8F6
:1025800003305B00DBB28DF803309DF8033013F0AD
:10259000800FF0D10E4A53681B0203F4E0635360CE
:1025A000019BDBB2094A13700A4B1A6842F47002AD
:1025B0001A601A6842F070421A60FFF7B1FF064BCA
:1025C00000221A60FFF700FFFFF7E4FE00E400E0DE
:1025D000D001002020ED00E000000020134A12F09E
:1025E000070F20D0D11D21F00701C1F5406313442E
:1025F0000A460E49C1F8002C0020C1F8040C13440F
:10260000083B23F00703C1F8083C58601860981A8B
:1026100050601360C1F80C0CC1F8100C4FF000436F
:10262000C1F8143C70474FF44063E2E7D801002042
:1026300010B4134B1A6882421BD359685C18844249
:1026400003D1406801445960184641684418A242C9
:1026500013D10C4CD4F8084CA2420CD0526811444F
:1026600041601A6812680260984200D0186010BC7D
:1026700070471346DEE70460F6E70260F4E700BF48
:10268000D80D0020D801002070B50446FFF7BEFC2D
:102690003F4BD3F8083CC3B13D4BD3F8143C1C422C
:1026A0006CD1ACB1083414F0070F11D024F007043A
:1026B000083404F007035BB14FF0500383F3118833
:1026C000BFF36F8FBFF34F8FFEE7FFF787FFE3E79F
:1026D000002C55D02E4BD3F8103CA34252D32C4B98
:1026E000D3F8005C03F5406301E02B4615466A68A9
:1026F000A24202D22A68002AF7D1254AD2F8082C31
:10270000AA4241D01E6808362A681A606B681B1BF3
:10271000102B10D9281910F0070F08D04FF05003D4
:1027200083F31188BFF36F8FBFF34F8FFEE74360D2
:102730006C60FFF77DFF6968154AD2F8103C5B1AA0
:10274000C2F8103CD2F80C2C934202D2104AC2F8C4
:102750000C3C0F4BD3F8143C0B436B6000232B60F5
:10276000FFF7E4FC16F0070F10D04FF0500383F38F
:102770001188BFF36F8FBFF34F8FFEE70026EFE79F
:102780000026EDE70026EBE70026E9E7304670BDBE
:10279000D801002098B338B50446A0F1080550F8D8
:1027A000042C1749D1F8141C0A4208D14FF05003E9
:1027B00083F31188BFF36F8FBFF34F8FFEE750F89D
:1027C000080C40B14FF0500383F31188BFF36F8FB3
:1027D000BFF34F8FFEE722EA010244F8042CFFF713
:1027E00015FC54F8041C064AD2F8103C0B44C2F8FD
:1027F000103C2846FFF71CFFFFF798FC38BD7047D8
:10280000D801002000B587B006AA02F8010D0A23FE
:102810000293012301930092002278210248FEF7DF
:1028200031F807B05DF804FB5C120020002303E0E0
:10283000FF21054AD1540133B3F5806F03D200283C
:10284000F6D10021F5E77047F00D002010B584B0F7
:1028500000241AE0A4F15000C0B2FFF7D3FF00201B
:10286000FFF7D0FF1020FFF7CDFF642302938023F2
:102870000193084B03EBC4130093012340227821FA
:102880000548FDF7FFFF0134E4B2072CE2D904B09C
:1028900010BD00BFF00D00205C12002008B56420C0
:1028A000FDF79EFCAE20FFF7ADFF2020FFF7AAFF4B
:1028B0001020FFF7A7FFB020FFF7A4FFC820FFF705
:1028C000A1FF0020FFF79EFF1020FFF79BFF402095
:1028D000FFF798FF8120FFF795FFFF20FFF792FF9A
:1028E000A120FFF78FFFA620FFF78CFFA820FFF79E
:1028F00089FF3F20FFF786FFA420FFF783FFD32047
:10290000FFF780FF0020FFF77DFFD520FFF77AFF5C
:10291000F020FFF777FFD920FFF774FF2220FFF7A1
:1029200071FFDA20FFF76EFF1220FFF76BFFDB204D
:10293000FFF768FF2020FFF765FF8D20FFF762FF9C
:102940001420FFF75FFFAF20FFF75CFF0020FFF7C9
:102950006DFFFFF77BFF054B0022A3F80024A3F8CF
:102960000224012083F8050408BD00BFF00D0020FB
:1029700010F0800F16D13F2914D8114B93F804346E
:1029800013B1B2FA82F25209012A0CD0CB0800EB43
:10299000C31001F0070101238B40094A115C21EAB1
:1029A000030111547047CB0800EBC31001F007017D
:1029B00001238B40024A115C19431154704700BF38
:1029C000F00D00202DE9F04F83B002AC04E90600C1
:1029D000284AB2F800249DF8006032447F2A43DC84
:1029E000244AB2F802249DF801A0D34652443F2A5B
:1029F0003EDC98468146002523E01E4BB3F80004D8
:102A0000B3F8021429442044B8FA88F25209C9B232
:102A1000C0B2FFF7ADFF0134A64211D907FA04F3A3
:102A200013F4004FE9D0134BB3F80004B3F80214C9
:102A3000294420444246C9B2C0B2FFF799FFEAE7F1
:102A40000135AA4508D9A9F1200303FB0B53019ACC
:102A500032F813700024DFE7064BB3F80024164465
:102A6000A3F80064484600E0002003B0BDE8F08F02
:102A70000020FAE7F00D002070B582B0054602A8EC
:102A800000E906001E462C785CB1334602AA12E922
:102A900006002046FFF796FF2C78A04201D10135B1
:102AA000F1E7204602B070BD024BA3F80004A3F882
:102AB00002147047F00D00204268002A12DD90F9E0
:102AC0000D30C3F140039A420EDA0268002A0DDD90
:102AD00090F90C30C3F180039A4201DA002070476C
:102AE0000420704701207047022070470320704780
:102AF00030B40B6804684A684568521B1B1B11D42C
:102B0000002B03DD90F90C409C4200DCEBB9002A5D
:102B100011DB002A03DD90F90D30934218DCCAB1B5
:102B2000002013E083EAE375A5EBE37591F90C400F
:102B3000A542ECDBE4E782EAE274A4EBE27491F9EB
:102B40000D309C42E5DA012000E0002030BC7047E7
:102B50000120FBE70120F9E700B583B00121084619
:102B6000FFF7A2FF0A2201A9064B186800F010FD2A
:102B7000054A012306CA01A8FFF77EFF03B05DF8EE
:102B800004FB00BFF81100200C00002008B5002055
:102B9000FFF74CFE17210220FFF786FF034A0123AF
:102BA00006CA0348FFF768FF08BD00BF0C000020FD
:102BB000B05F000808B50A4B5B6803B908BD002187
:102BC0000848FEF7A1FD064A936801339360012B84
:102BD000F4DD0021516091600248FEF7A2FDEDE7AF
:102BE000F8110020B012002008B50068037A03B97C
:102BF00008BD00F10C030CCB0179007800F07EF9E0
:102C0000F6E70000014B00221A60704728120020EE
:102C100010B50446082000F0BDFC034B1A68426062
:102C20000460186010BD00BF2812002038B50446AB
:102C300015460370049B43704160142000F0AAFC09
:102C40000346286000F10C0294E8030082E80300C8
:102C5000079A1A72059A1A60069A5A601846FFF780
:102C6000D7FF38BD70B584B0FFF7CCFF1A4D0126F1
:102C700003963723029338230193042400941023EE
:102C8000164A29461648FFF7D1FF03961E230293E2
:102C90003A23019300942346124A29461248FFF72B
:102CA000C5FF002413E06FF00C0303FB04F30122C3
:102CB000039200220292743301930B2300930B4A78
:102CC00002EB84020A490B48FFF7B0FF0134022CE3
:102CD000E9DD04B070BD00BF685F00082C12002061
:102CE0004012002030120020481200203412002030
:102CF000505F00085012002010B56A4BDB68BBB96A
:102D0000694B1C682146694B1868FFF7F1FE0028E3
:102D100035D0644B1B69002B34D1624B4FF0FF322E
:102D20005A611A6801321A6001225A601A6129E058
:102D30004FF480615E48FDF795FB012867D10821BB
:102D40005C48FDF78FFB012861D10023554AD36011
:102D5000554A11683C20086012680A21516005E05C
:102D6000554A52F82320012111720B44022BF7DD42
:102D7000524B03221A604B4B00221A6047E0494B2A
:102D800000221A612046FFF797FE0138032806D873
:102D9000DFE800F0023E5357424B01225A61414B9B
:102DA0005B69002B52DD404B1A6853680133536056
:102DB0003C4B9B69002B4FDD3B4B1A68136801337A
:102DC00013604FF480613A48FDF74CFB012849D06D
:102DD000344BDB69002B02DD013B324AD361082111
:102DE0003448FDF73FFB012844D02E4BDB69002B14
:102DF00049DB2E4B1C682046FFF75EFE032846D0B9
:102E0000042849D02368274AD2691344236010BD9F
:102E10002A4A1368013B1360274A52F823200021F5
:102E2000117213B91F4B0122DA60002363603E2345
:102E300023601C4B01225A61B1E71A4B01229A61AF
:102E4000ADE7184B4FF0FF329A61A8E7164B1A68AE
:102E50005368013B5360ABE7134B1A681368013B9F
:102E60001360AEE70F4BDB69022BB8DC01330D4A70
:102E7000D361B4E70B4BDB6913F1020FB9DB013B04
:102E8000084AD361B5E70133064AD361B1E7054B80
:102E9000DB69002BB4DABAE7024BDB69002BB6DC46
:102EA000B0E700BFF8110020301200202C120020E3
:102EB0000000024000040240341200201C000020E8
:102EC00010B50C4BDB687BB90020FFF7AFFCFFF7B8
:102ED00043FE094B1C68236843B12046FFF784FE7C
:102EE0006468002CF7D101E0FFF750FEFFF7AEFC5D
:102EF00010BD00BFF811002028120020F0B583B0EB
:102F000007460E4602A901E90C0000251BE07119D5
:102F100038190022C9B2C0B2FFF72AFD01349DF969
:102F20000030A3420EDD019B33F81530A34013F4AB
:102F3000004FECD0711938190122C9B2C0B2FFF7A5
:102F400017FDEBE701359DF90130AB4201DD0024AF
:102F5000E5E703B0F0BD08B52120FFF75FF9FFF703
:102F6000CBFEF9E708B52120FFF758F9FFF7A8FFD6
:102F7000F9E708B5FFF71EFE2120FFF74FF9F9E743
:102F800070B58AB0002405940694079408940994B7
:102F9000294BDA6942F00402DA61DA6902F00402CC
:102FA0000192019ADA6942F02002DA61DA6902F0EC
:102FB00020020292029ADA6942F00102DA61DA69C9
:102FC00002F001020392039ADA6942F00202DA6126
:102FD000DB6903F002030493049B184D2246202171
:102FE0002846FDF746FA4FF400530593144B069319
:102FF000079405A91348FDF75DF9202305930123E4
:1030000006930794089405A92846FDF753F94FF451
:103010008063059306940226079605A92846FDF7C6
:1030200049F9082305930694079605A90648FDF774
:1030300041F90AB070BD00BF0038024000000240F4
:1030400000001110000802400004024008B50848C2
:10305000084B03604FF4E133436000238360C36097
:1030600003610C2242618361C361FEF797FD08BDD5
:10307000E81200200044004008B50948094B0360ED
:10308000094B436000238360C3604FF480420261B8
:1030900043618361C3610362FDF742FB08BD00BF6A
:1030A0005C12002000540040A086010030B589B0B9
:1030B00000240694079401940294039404940594C4
:1030C000104D114B2B6040F237436B60AC606323B3
:1030D000EB602C612846FEF7FEFA0694079406A9D9
:1030E0002846FEF7A1FB6023019302940394049405
:1030F000224601A92846FEF729FB284600F058F988
:1031000009B030BDB01200200004004008B5012015
:10311000FEF796FDFBE7000008B520210148FDF70A
:10312000AEF908BD0000024008B5FFF7F5FF4FF407
:10313000FA70FFF773F8F8E708B5FFF7AFFB002068
:10314000FFF774FBFFF782FB17210120FFF7ACFCB0
:10315000064A012306CA0648FFF78EFCFFF776FBF6
:103160004FF47A70FDF73CF808BD00BF0C0000205A
:10317000BC5F000800B587B0602301930290002275
:103180000392049201A90348FEF7E0FA07B05DF844
:1031900004FB00BFB012002030B593B034220021F0
:1031A00005A800F0FFF90024009401940294039410
:1031B0000494124A136823F4C05343F40063136069
:1031C0000223059301250895102209920E930F946E
:1031D0004FF4002310934FF40003119305A8FDF75B
:1031E00061FC0F230093032301930294039404943E
:1031F00029466846FEF76AF813B030BD00700040FB
:1032000000B589B0FCF7D2FFFFF7C6FFFFF7B8FEA5
:10321000FFF71CFFFFF730FFFFF748FFFFF78CFFBA
:10322000FFF720FD00211B48FEF77BFA1E20FFF769
:10323000A1FF03AC184D0FCD0FC42B6823600021F4
:1032400003A8FEF7E3FC154B186000240194012548
:10325000009523460A2212491248FEF76BFE01949C
:1032600000952346322210491048FEF763FE019470
:10327000009423460A220E490E48FEF75BFE019495
:10328000009423460A220C490C48FEF753FEFEF731
:10329000B8FCFEE7B0120020705F00085812002052
:1032A000C85F0008572F0008D05F0008652F00088E
:1032B000D85F0008732F0008E05F0008293100087C
:1032C00000B585B0124B5A6A42F000425A625A6AFF
:1032D00002F000420192019A1A6A42F001021A6257
:1032E0001A6A02F001020292029A5A6A42F080526D
:1032F0005A625B6A03F080530393039B00220F2101
:103300006FF00100FCF78CFF05B05DF804FB00BF17
:103310000038024010B588B000230393049305934E
:10332000069307930268144B9A4201D008B010BD6F
:10333000124CE36943F00203E361E36903F0020323
:103340000193019B4FF440730393122304930123D1
:103350000593032306930423079303A90848FCF766
:10336000A9FF636A43F400136362636A03F4001302
:103370000293029BDAE700BF00540040003802408D
:10338000000402400268094B9A4200D0704782B0A4
:1033900003F50D335A6A42F002025A625B6A03F087
:1033A00002030193019B02B0704700BF000400407C
:1033B00000B587B000230193029303930493059310
:1033C00002680D4B9A4202D007B05DF804FB03F58A
:1033D0000D33DA6942F00202DA61DB6903F00203BD
:1033E0000093009B1023019302230293059301A9EC
:1033F0000248FCF75FFFE7E70004004000040240DA
:1034000000B589B0002303930493059306930793B3
:103410000268144B9A4202D009B05DF804FB03F530
:10342000FA335A6A42F400325A625A6A02F400329B
:103430000192019ADA6942F00102DA61DB6903F074
:1034400001030293029B0C230393022304930123A1
:103450000593032306930723079303A90248FCF768
:1034600029FFD9E700440040000002407047FEE712
:10347000FEE7FEE7FEE7704708B5FCF7A3FEFEF7A0
:10348000E8FB08BD0E4B1A6842F480721A60996816
:103490000C4A0A409A601A6822F0885222F00112FF
:1034A0001A601A6822F480221A609A6822F47D0257
:1034B0009A600022DA60044B4FF000629A60704715
:1034C000003802400CC0FF8800ED00E0002103E05E
:1034D0000B4B5B58435004310A480B4B42189A423D
:1034E000F6D30A4A02E0002342F8043B084B9A4212
:1034F000F9D3FFF7C7FF00F00FF8FFF781FE704721
:1035000020600008000000208800002088000020C3
:103510002C130020FEE7000070B500250C4E0D4C6A
:10352000A41BA410A54209D100F0FCF800250A4E06
:103530000A4CA41BA410A54205D170BD56F8253035
:1035400098470135EEE756F8253098470135F2E700
:103550001860000818600008186000081C60000867
:10356000931E222B10B50C4604D900231C460B7069
:10357000204610BD0A2A09D1002807DA2D230B7036
:1035800001214042214400F07FF8F1E70021F9E7F2
:10359000FFF7E6BF024B0146186800F00BB800BF0A
:1035A0002400002003460244934200D1704703F8F0
:1035B000011BF9E770B5CD1C25F0030508350C2D6E
:1035C00038BF0C25002D064601DBA94203D90C2388
:1035D0003360002070BD00F095F8214A1468214640
:1035E00091B9204C23681BB9304600F03DF82060AB
:1035F0002946304600F038F8431C24D10C233046CD
:10360000336000F080F8E4E70B685B1B18D40B2BE9
:103610000FD90B60CC18CD50304600F074F804F18F
:103620000B00231D20F00700C31AD3D05A42E250EA
:10363000D0E74B688C4216BF636013600C46EBE723
:103640000C464968CCE7C41C24F00304A04205D012
:10365000211A304600F008F80130CFD02560DBE7B2
:10366000181200201C12002038B50023054C054616
:103670000846236000F048F8431C02D1236803B1D8
:103680002B6038BD28130020F0B58BB005460C46E2
:103690006E461B4B03F1200C3746186859680833F7
:1036A00003C763453E46F7D118681B7938603B7104
:1036B000931E222B4FF0000304D923701C46204692
:1036C0000BB0F0BD661EB5FBF2F002FB10550AAF61
:1036D0003D4415F8285C591C06F8015F054668B999
:1036E000224660542344191B101B8142E7DD1178E8
:1036F000187802F8010B03F80119F4E70B46E2E72A
:10370000F05F000870477047044A05491368002BB2
:1037100008BF0B461844106018467047201200205E
:1037200030130020F8B500BFF8BC08BC9E467047B7
:0C373000F8B500BFF8BC08BC9E4670470E
:10373C00000000000000000000000000000000007D
:10374C00000000000000000000000000000000006D
:10375C00000000000000000000000000000000005D
:10376C0000000000E003E003E003E003E003E003FB
:10377C00E003E003C003C003C001C001C001C001ED
:10378C00C001000000000000E003E003E0030000C3
:10379C0000000000000000003C1E3C1E3C1E3C1EB5
:1037AC003C1E3C1E3C1E00000000000000000000FF
:1037BC0000000000000000000000000000000000FD
:1037CC00000000000000000000000000CE01CE034D
:1037DC00DE039E039C039C07FF3FFF7F3807380FD7
:1037EC00780F780F780EFFFFFFFFF01EF01CE01C27
:1037FC00E03CE03DE039000000000000000000006B
:10380C00FC03FE0FEE1FE01EE01EE01EE01EE01F9C
:10381C00E00FE007F003FC01FE01FE01FE01FE01DA
:10382C00FE01FE01FE3DFC3FF00FE001E001000057
:10383C0000000000033E07F78FE78EE79EE3BCE332
:10384C00B8E7F8E7F0F7E03FC001FF03FF07F30725
:10385C00F30FF31EF33CF338F3787FF03FE00000F6
:10386C000000000000000000E007F80F780F781F40
:10387C00781F781F780FF00FE00F801FC37FC3FBFA
:10388C00E7F3F7F1F7F0FFF07FF03EF87F7CFF3FB6
:10389C00EF1F00000000000000000000E003E00348
:1038AC00E003E003E003C003C001000000000000DF
:1038BC0000000000000000000000000000000000FC
:1038CC0000000000000000000000000000000000EC
:1038DC003F007C00F001E001C003C00780078007B7
:1038EC00800F000F000F000F000F000F000F800F54
:1038FC0080078007C007C003E001F0017C003F0097
:10390C000F000000007E001FC007C003E001F001A3
:10391C00F000F000F800780078007800780078006B
:10392C007800F800F000F000F001E001C003C007DF
:10393C00001F007E00780000E003C003C001CE39F8
:10394C00FF3F7F3F20037003F807780F3C1F3806BA
:10395C00000000000000000000000000000000005B
:10396C00000000000000000000000000000000004B
:10397C000000000000000000C001C001C001C00137
:10398C00C001C001C001FFFFFFFFC001C001C001A9
:10399C00C001C001C00100000000000000000000D8
:1039AC00000000000000000000000000000000000B
:1039BC0000000000000000000000000000000000FB
:1039CC000000E003E003E003E003E001E001E001BC
:1039DC00C001800300000000000000000000000097
:1039EC0000000000000000000000FE3FFE3F000051
:1039FC0000000000000000000000000000000000BB
:103A0C0000000000000000000000000000000000AA
:103A1C00000000000000000000000000000000009A
:103A2C0000000000000000000000E003E003E003E1
:103A3C00E003000000000000000000000F000F0079
:103A4C001E001E003C003C0078007800F000F000E6
:103A5C00E001E001C003C00380078007000F000FE6
:103A6C00001E001E003C003C0078007800F00000B6
:103A7C00F007F80F7C1F3E3E1E3C1F7C1F7C0F780E
:103A8C000F780F780F780F780F780F781F7C1F7CCA
:103A9C001E3C3E3E7C1FF80FF007000000000000AB
:103AAC0000000000F000F007F03FF03FF001F001E3
:103ABC00F001F001F001F001F001F001F001F00172
:103ACC00F001F001F001F001F001FF3FFF3F0000B9
:103ADC000000000000000000E00FF83F7C3C3C00C0
:103AEC003E003E003E003C003C007C00F800F00133
:103AFC00E003C0078007000F001E003E003CFE3FA5
:103B0C00FE3F00000000000000000000F00FF81F56
:103B1C007C1C3E003E003E003C003C00F800F00FD8
:103B2C00F80F7C003E001E001E001E001E003E0012
:103B3C007C1CF81FE01F00000000000000000000CB
:103B4C007800F800F800F801F803F807F807780F88
:103B5C00781E781E783C78787878FFFFFFFF780025
:103B6C0078007800780078007800000000000000F1
:103B7C0000000000FC1FFC1FFC1F001E001E001E8E
:103B8C00001E001EE01FF81FFC007C003E003E00E3
:103B9C001E003E003E003C007C1CF81FE01F000095
:103BAC000000000000000000FC01FE078E0F001F4B
:103BBC00001E003E003C003CF83DFC3F3E7F1F7E5B
:103BCC000F3C0F3C0F3C0F3C0F3E1F1E3E1FFC0FCB
:103BDC00F00300000000000000000000FF3FFF3F6A
:103BEC00FF3F0F001E001E003C0038007800F00064
:103BFC00F000E001E001C003C0038007800F800FDC
:103C0C00000F001F001F000000000000000000005B
:103C1C00F807FC0F3E1F1E1E1E3E1E3E1E1E3C1FA6
:103C2C00F80FF007F80FFC1E3E3E1F3C1F7C0F7C6C
:103C3C000F7C1F3C3E3FFC1FF00700000000000003
:103C4C0000000000F007F80F7C1E3E3C1E3C1F7C61
:103C5C001F7C1F7C1F7C1F3C3F3EFF1FEF071F007C
:103C6C001E001E003E003C00F838F03FE01F000034
:103C7C000000000000000000000000000000000038
:103C8C0000000000E003E003E003E003000000009C
:103C9C0000000000000000000000E003E003E0036F
:103CAC00E003000000000000000000000000000025
:103CBC000000000000000000E003E003E003E0036C
:103CCC000000000000000000000000000000E00305
:103CDC00E003E003E003E001E001E001C003800346
:103CEC0000000000000000000000000003000F00B6
:103CFC003F00FC00F003C00F003F00FE003FC00F70
:103D0C00F003FC003F000F00030000000000000067
:103D1C000000000000000000000000000000000097
:103D2C000000000000000000FFFFFFFF000000008B
:103D3C000000FFFFFFFF000000000000000000007B
:103D4C000000000000000000000000000000000067
:103D5C000000000000E000F8007E801FE007F80182
:103D6C007E001F007E00F801E007801F007E00F837
:103D7C0000E000000000000000000000F01FFC3F0D
:103D8C003E381F381F381E001E003C007800F00023
:103D9C00E001C003C003C007C00700000000000022
:103DAC00C007C007C00700000000000000000000B2
:103DBC00F803FE0F1E1F0F3E7F3CFF78EF79C77391
:103DCC00C7F38FF38FF38FF39FF39FF3FF73FF7B97
:103DDC00F779003C1C1FFC0FF803000000000000EA
:103DEC0000000000000000000000E003E003F0070A
:103DFC00F007F007780F780F7C0E3C1E3C1E3E3C03
:103E0C00FE3FFF3F1F780F780FF007F007F0000020
:103E1C000000000000000000000000000000F83F5F
:103E2C00FC3F3E3C1E3C1E3C1E3C3E3C7C3CF03F62
:103E3C00F83F7E3C1F3C1F3C0F3C0F3C1F3CFE3FA1
:103E4C00F83F00000000000000000000000000002F
:103E5C000000FF01FF07871F003E003C007C00783C
:103E6C000078007800780078007C007C003E003FF1
:103E7C00831FFF07FF01000000000000000000008E
:103E8C00000000000000F07FFC7F7E781F781F7818
:103E9C000F780F780F780F780F780F780F780F78DE
:103EAC001F781E787E78F87FE07F0000000000000D
:103EBC0000000000000000000000FF3FFF3F003E3C
:103ECC00003E003E003E003E003EFE3FFE3F003EF8
:103EDC00003E003E003E003E003EFF3FFF3F000024
:103EEC000000000000000000000000000000FF1FA8
:103EFC00FF1F001E001E001E001E001E001EFF1FC6
:103F0C00FF1F001E001E001E001E001E001E001EB5
:103F1C00001E000000000000000000000000000077
:103F2C000000FE03FF0F871F003E007C007C007822
:103F3C0000F800F87FF87FF80F780F7C0F7C0F3EAD
:103F4C008F1FFF0FFE0300000000000000000000A8
:103F5C000000000000001F7C1F7C1F7C1F7C1F7C4E
:103F6C001F7C1F7C1F7CFF7FFF7F1F7C1F7C1F7CA7
:103F7C001F7C1F7C1F7C1F7C1F7C0000000000002E
:103F8C0000000000000000000000FF3FFF3FE003C6
:103F9C00E003E003E003E003E003E003E003E003FD
:103FAC00E003E003E003E003E003FF3FFF3F00001A
:103FBC000000000000000000000000000000FC1FDA
:103FCC00FC1F7C007C007C007C007C007C007C0066
:103FDC007C007C007C007C0078007800F838F03F96
:103FEC00C03F0000000000000000000000000000C6
:103FFC0000001F3C1E3C3C3C783CF03CE03DE03F6C
:10400C00C03F803FC03FE03FF03DF03C783C7C3C03
:10401C003E3C1F3C0F3C0000000000000000000074
:10402C00000000000000003E003E003E003E003E4E
:10403C00003E003E003E003E003E003E003E003E84
:10404C00003E003E003EFF3FFF3F0000000000002E
:10405C00000000000000000000001FF81FFC1FFC07
:10406C003FFE3FFE3FFE7FFF77FF77FFF7F7E7F757
:10407C00E7F3E7F3C7F307F007F007F007F00000EA
:10408C0000000000000000000000000000000F7C99
:10409C000F7C0F7E0F7F0F7F8F7F8F7FCF7FEF7B0C
:1040AC00EF79FF79FF78FF787F783F783F781F783A
:1040BC001F7800000000000000000000000000005D
:1040CC000000F007FC1F3E3E1F7C0F780F780FF8A6
:1040DC000FF80FF80FF80FF80FF80F780F781F7C08
:1040EC003E3EFC1FF0070000000000000000000036
:1040FC00000000000000FC3FFF3F1F3E0F3E0F3E44
:10410C000F3E0F3E1F3E3F3EFC3FF03F003E003E49
:10411C00003E003E003E003E003E0000000000005D
:10412C0000000000000000000000F007FC1F3E3EF5
:10413C001F7C0F780F780FF80FF80FF80FF80FF8A7
:10414C000FF80F780F781F7C3E3EFC1FF8077C00A1
:10415C003F000F0003000000000000000000F03FD3
:10416C00FC3F7E3C3E3C1E3C1E3C3E3C3C3CFC3CF6
:10417C00F03FE03FF03DF83C7C3C3E3C1E3C1F3C9D
:10418C000F3C0000000000000000000000000000D8
:10419C000000FC07FE1F0E3E003C003C003C003EB5
:1041AC00C01FF80FFE037F001F000F000F001F2021
:1041BC003E3CFC3FF01F000000000000000000002F
:1041CC00000000000000FFFFFFFFE003E003E0033E
:1041DC00E003E003E003E003E003E003E003E003BB
:1041EC00E003E003E003E003E00300000000000054
:1041FC00000000000000000000000F7C0F7C0F7C12
:10420C000F7C0F7C0F7C0F7C0F7C0F7C0F7C0F7C4A
:10421C000F7C0F7C1E3C1E3C3E3EFC1FF00700003A
:10422C00000000000000000000000000000007F08B
:10423C0007F007F80F780F7C1E3C1E3C1E3E3C1E00
:10424C003C1F781F780FF80FF007F007F007E0031A
:10425C00E00300000000000000000000000000006F
:10426C00000003E003F003F007F0E7F3E7F3E7F3F4
:10427C00E773F77BF77FFF7F7F7F7F7F7E7F7E3FBC
:10428C003E3E3E3E3E3E00000000000000000000AE
:10429C0000000000000007F80F7C1E3E3E3E3C1F55
:1042AC00F80FF007E007E003E003F007F80F7C0FCE
:1042BC007C1E3E3C1F780F780FF0000000000000C1
:1042CC000000000000000000000007F807780F7CD9
:1042DC001E3C1E3E3C1F780FF80FF007E003E00376
:1042EC00E003E003E003E003E003E003E00300008D
:1042FC000000000000000000000000000000FF7F34
:10430C00FF7F0F001F003E007C00F800F000E00172
:10431C00E003C007800F000F001E003E007CFF7FF3
:10432C00FF7F00000000000000000000FF07800776
:10433C008007800780078007800780078007800739
:10434C008007800780078007800780078007800729
:10435C0080078007800780078007FF07FF070000A2
:10436C0000780078003C003C001E001E000F000F7F
:10437C0080078007C003C003E001E001F000F000FB
:10438C00780078003C003C001E001E000F000F005F
:10439C0007000000F07FF000F000F000F000F000EB
:1043AC00F000F000F000F000F000F000F000F00081
:1043BC00F000F000F000F000F000F000F000F00071
:1043CC00F000F07FF07F0000C000C001C001E003EE
:1043DC00E003F007F0077807780F380F3C1E3C1EFF
:1043EC001E3C1E3C0F380F780778000000000000C0
:1043FC0000000000000000000000000000000000B1
:10440C0000000000000000000000000000000000A0
:10441C000000000000000000000000000000000090
:10442C00000000000000FFFFFFFF00000000000084
:10443C00F000000000000000000000000000000080
:10444C000000000000000000000000000000000060
:10445C000000000000000000000000000000000050
:10446C000000000000000000000000000000000040
:10447C00F80FFC3F7C3C3E003E003E00FE07FE1F5A
:10448C003E3E3E7C3E783E7C7E7CFF3FCF1F000054
:10449C000000000000000000003C003C003C003C20
:1044AC00003C003CF83DFE3F3E3F1F3E0F3C0F3CA6
:1044BC000F3C0F3C0F3C0F3C1F3C1E3C3E3FFC3F57
:1044CC00F03B0000000000000000000000000000B5
:1044DC000000000000000000FE03FF0F871F003EDD
:1044EC00003E003C007C007C007C003C003E003E1A
:1044FC00871FFF0FFE0300000000000000000000FB
:10450C001F001F001F001F001F001F00FF07FF1FC1
:10451C003F3E1F3C1F7C1F7C1F7C1F781F781F7C1D
:10452C001F7C3F3C7F3EFF1FDF0F000000000000A0
:10453C00000000000000000000000000000000006F
:10454C00F803FC0F3E1F1E3E1F3C1F7CFF7FFF7FAE
:10455C00007C007C003C003E071FFF0FFE030000A8
:10456C000000000000000000FF01E103C003C007D1
:10457C00C007C007FF7FFF7FC007C007C007C00789
:10458C00C007C007C007C007C007C007C007C007E7
:10459C00C007000000000000000000000000000048
:1045AC000000000000000000EF07FF1F7F3E1F3CD3
:1045BC001F7C1F7C1F781F781F781F7C1F7C3F3C43
:1045CC007F3EFF1FDF0F1E001E001E007C38F83FD1
:1045DC00003C003C003C003C003C003CFC3DFE3FF1
:1045EC009E3F1F3F1F3E1F3C1F3C1F3C1F3C1F3C60
:1045FC001F3C1F3C1F3C1F3C1F3C000000000000E8
:10460C0000000000F001F0010000000000000000BC
:10461C00E07FE07FE001E001E001E001E001E0018A
:10462C00E001E001E001E001E001E001E001000057
:10463C000000000000000000F800F800000000007E
:10464C0000000000F83FF83FF800F800F800F80010
:10465C00F800F800F800F800F800F800F800F8008E
:10466C00F800F800F800F000F071E07F003C003C2E
:10467C00003C003C003C003C1F3C3E3C7C3CF83C7D
:10468C00F03DE03DC03FC03FE03FF03DF83C7C3C9E
:10469C003E3C1F3C1F3C00000000000000000000DE
:1046AC00F07FF001F001F001F001F001F001F001F8
:1046BC00F001F001F001F001F001F001F001F00166
:1046CC00F001F001F001F001F00100000000000029
:1046DC0000000000000000000000000000000000CE
:1046EC009EF7FFFFFFFFFFFFE7FBE7F9C7F1C7F1FD
:1046FC00C7F1C7F1C7F1C7F1C7F1C7F1C7F10000A6
:10470C00000000000000000000000000000000009D
:10471C0000000000FC3DFE3F9E3F1F3F1F3E1F3C24
:10472C001F3C1F3C1F3C1F3C1F3C1F3C1F3C1F3CA5
:10473C001F3C000000000000000000000000000012
:10474C000000000000000000F007FC1F3E3E1F3C74
:10475C001F7C0F780F780F780F780F781F7C1F3C19
:10476C003E3EFC1FF00700000000000000000000AF
:10477C00000000000000000000000000F83DFE3FBB
:10478C003E3F1F3E0F3C0F3C0F3C0F3C0F3C0F3C81
:10479C001F3C1E3E3E3FFC3FF83F003C003C003CB3
:1047AC00003C003C00000000000000000000000085
:1047BC00EE07FE1F7E3E1E3C1E7C1E781E781E7869
:1047CC001E781E781E7C3E7C7E3EFE1FDE0F1E0079
:1047DC001E001E001E001E00000000000000000055
:1047EC00000000007F1FFF1FE71FC71F871F001F50
:1047FC00001F001F001F001F001F001F001F001FB5
:10480C00001F00000000000000000000000000007D
:10481C000000000000000000FC07FE1F0E1E003E02
:10482C00003E003FE01FFC07FE003E001E001E0085
:10483C003E3CFC3FF01F00000000000000000000A8
:10484C00000000000000800780078007FF7FFF7FCB
:10485C008007800780078007800780078007800714
:10486C0080078007C007FF03FF0100000000000065
:10487C00000000000000000000000000000000002C
:10488C001E3C1E3C1E3C1E3C1E3C1E3C1E3C1E3C4C
:10489C001E3C1E3C3E3C7E3CFE3EFE1FDE0F0000DE
:1048AC0000000000000000000000000000000000FC
:1048BC000000000007F00F780F781E3C1E3C1E3ED7
:1048CC003C1E3C1E780F780FF00FF007F007E0034A
:1048DC00E0030000000000000000000000000000E9
:1048EC00000000000000000003F0E3F1E3F3E7F345
:1048FC00F7F3F7F3F77F777F7F7F7F7F7F7F3E3EF6
:10490C003E3E3E3E3E3E0000000000000000000027
:10491C000000000000000000000000000F7C1E3EA4
:10492C003C3E3C1FF80FF007F007E003F007F807D8
:10493C00F80F7C1E3E3E1F3C1F780000000000005C
:10494C00000000000000000000000000000000005B
:10495C0007F80F780F7C1E3C1E3C3C1E3C1E3C1F77
:10496C00780FF80FF007F007E003E003C003C00373
:10497C00C0038007800F007F0000000000000000D3
:10498C0000000000FF3FFF3F1F003E007C00F800CE
:10499C00F001E003C007800F001F001E003CFF7FEA
:1049AC00FF7F00000000000000000000FE01E0039B
:1049BC00C003C003C003C003E001E001E001C0017B
:1049CC00C003803F803FC003C001E001E001E00173
:1049DC00C003C003C003C003E003FE017E0000005F
:1049EC00C001C001C001C001C001C001C001C001B3
:1049FC00C001C001C001C001C001C001C001C001A3
:104A0C00C001C001C001C001C001C001C001C00192
:104A1C00C0010000C03FE003E001E001E001E00163
:104A2C00C001C003C003C001E001FE00FE00E001B4
:104A3C00C001C003C003C001E001E001E001E001DE
:104A4C00E003C03F003F0000000000000000000039
:104A5C000000000000000000000000000000073F04
:104A6C00C77FE773FFF17EF000000000000000003C
:104A7C00000000000000000000000000000000002A
:104A8C00000000000000000000000000000000001A
:104A9C00000000000000000000000000000000000A
:104AAC000000000C000C000C000C000C000C000CA6
:104ABC00000C000C000C000C0000000C000C0000A2
:104ACC00000000000000001B001B001B001B001B53
:104ADC0000000000000000000000000000000000CA
:104AEC0000000000000000000000801980198019EF
:104AFC008019C07FC07F80190033C07FC07F003316
:104B0C000033003300330000000000000000001EE2
:104B1C00003F807580650074003C001E0007800516
:104B2C00806580658075003F001E00040004000055
:104B3C000000007000D840D8C0D880D9007300069F
:104B4C00000C801BC036C066C046C0068003000047
:104B5C00000000000000001E003F00330033003353
:104B6C00001E000CC03CC066806380618063C03E48
:104B7C00801C0000000000000000000C000C000C69
:104B8C00000C000C00000000000000000000000001
:104B9C000000000000000000000000008000000188
:104BAC000003000600060004000C000C000C000CB6
:104BBC00000C000C0004000600060003000180003D
:104BCC00002000100018000C000C00040006000669
:104BDC0000060006000600060004000C000C00187D
:104BEC00001000200000000C002D003F001E0033C0
:104BFC0000000000000000000000000000000000A9
:104C0C000000000000000000000000000000000C8C
:104C1C00000C000C000CC0FFC0FF000C000C000CC2
:104C2C00000C00000000000000000000000000006C
:104C3C000000000000000000000000000000000068
:104C4C00000000000000000C000C00040004000830
:104C5C000000000000000000000000000000000048
:104C6C000000001E001E00000000000000000000FC
:104C7C000000000000000000000000000000000028
:104C8C000000000000000000000000000000000C0C
:104C9C00000C0000000000000000000300030003F3
:104CAC000006000600060006000C000C000C000CB0
:104CBC000018001800180000000000000000001E82
:104CCC00003F0033806180618061806D806D806108
:104CDC00806180610033003F001E00000000000076
:104CEC0000000006000E001E00360026000600061E
:104CFC00000600060006000600060006000600007E
:104D0C00000000000000001E003F80738061806185
:104D1C00800100030006000C001800300060807F4A
:104D2C00807F0000000000000000001C003E0063BB
:104D3C0000630003000E000E0003800180018061FF
:104D4C008073003F001E0000000000000000000601
:104D5C00000E000E001E001E001600360036006607
:104D6C00807F807F00060006000600000000000027
:104D7C000000007F007F006000600060006E007F1C
:104D8C0080638001800180618073003F001E000001
:104D9C00000000000000001E003F803380610060B6
:104DAC00006E007F80738061806180618033003F82
:104DBC00001E0000000000000000807F807F80014A
:104DCC000003000300060006000C000C000C000899
:104DDC000018001800180000000000000000001E61
:104DEC00003F8063806180610021001E003F806174
:104DFC00806180618061003F001E000000000000A7
:104E0C000000001E003F0073806180618061807330
:104E1C00803F801D800180610073003F001E0000F8
:104E2C000000000000000000000000000000000C6A
:104E3C00000C000000000000000000000000000C4E
:104E4C00000C00000000000000000000000000004A
:104E5C0000000000000C000C00000000000000002E
:104E6C000000000C000C000400040008000000000E
:104E7C000000000080008003000E00380060003845
:104E8C00000E800380000000000000000000000005
:104E9C0000000000000000000000807F807F000008
:104EAC000000807F807F00000000000000000000F8
:104EBC000000000000000000000000000040007036
:104ECC00001C000780010007001C0070004000005F
:104EDC0000000000000000000000001F803FC071B7
:104EEC00C060C000C00180030007000E000C000C65
:104EFC000000000C000C0000000000000000001E70
:104F0C00003F803180718063806F806D806D806F19
:104F1C00806700600032003E001C000000000000B2
:104F2C000000000E000E001B001B001B001B80313C
:104F3C008031803F803F8031C060C060C060000025
:104F4C00000000000000007C007E00630063006332
:104F5C000063007E007E0063806180618063007F5F
:104F6C00007E0000000000000000001E003F8031A9
:104F7C008061006000600060006000600060806123
:104F8C008031003F001E0000000000000000007C8B
:104F9C00007F0063806380618061806180618061DB
:104FAC00806100630063007E007C00000000000054
:104FBC000000807F807F0060006000600060007FE8
:104FCC00007F0060006000600060807F807F0000D8
:104FDC00000000000000807F807F006000600060A7
:104FEC000060007F007F0060006000600060006077
:104FFC0000600000000000000000001E003F803137
:10500C00806100600060006080638063806180610B
:10501C008031803F001E0000000000000000806115
:10502C0080618061806180618061807F807F806130
:10503C0080618061806180618061000000000000FF
:10504C000000003F003F000C000C000C000C000C9A
:10505C00000C000C000C000C000C003F003F00008A
:10506C0000000000000080018001800180018001AF
:10507C008001800180018001806180618073003F2C
:10508C00001E0000000000000000C0608061006392
:10509C0000660066006C0078007C006600660063A9
:1050AC0080618061C06000000000000000000060B2
:1050BC0000600060006000600060006000600060E4
:1050CC00006000600060807F807F000000000000B6
:1050DC000000C071C071C07BC07AC06AC06AC06E6B
:1050EC00C064C060C060C060C060C060C0600000D0
:1050FC0000000000000080718071807980798079D7
:10510C00806D806D806D806580678067806780634F
:10511C0080630000000000000000001E003F003310
:10512C00806180618061806180618061806180616B
:10513C000033003F001E0000000000000000007E55
:10514C00007F80638061806180618063007F007E6E
:10515C000060006000600060006000000000000063
:10516C000000001E003F003380618061806180611F
:10517C0080618061806580670033803F401E000045
:10518C00000000000000007E007F80638061806171
:10519C008063007F007E0066006300638061806135
:1051AC00C0600000000000000000000E001F8031F5
:1051BC00803100300038001E000780038061806160
:1051CC008031003F001E0000000000000000C0FF06
:1051DC00C0FF000C000C000C000C000C000C000CB0
:1051EC00000C000C000C000C000C00000000000077
:1051FC00000080618061806180618061806180617C
:10520C0080618061806180618073003F001E0000BE
:10521C00000000000000C060C060C06080318031C0
:10522C008031001B001B001B001B000E000E000E2B
:10523C0000040000000000000000C0C0C0C0C0C0DE
:10524C00C0C0C0C0C0CC804C804C805E80528052AC
:10525C008073806180610000000000000000C0C00D
:10526C00806080610033003B001E000C000C001EAF
:10527C00001F003B80718061C0C000000000000076
:10528C000000C0C08061806100330033001E001E2E
:10529C00000C000C000C000C000C000C000C0000AE
:1052AC00000000000000803F803F800100030003ED
:1052BC000006000C000C0018001800300060807F05
:1052CC00807F000000000000000F000F000C000C9D
:1052DC00000C000C000C000C000C000C000C000C62
:1052EC00000C000C000C000C000F000F000000184C
:1052FC0000180018000C000C000C000C0006000636
:10530C00000600060003000300030000000000007C
:10531C00001E001E00060006000600060006000621
:10532C000006000600060006000600060006000641
:10533C00001E001E0000000C000C001E00120033AA
:10534C00003380618061000000000000000000005C
:10535C000000000000000000000000000000000041
:10536C000000000000000000000000000000000031
:10537C000000000000000000E0FF0000000000380A
:10538C000018000C000000000000000000000000ED
:10539C000000000000000000000000000000000001
:1053AC0000000000000000000000001F803F806132
:1053BC008001801F803F80618063807FC038000047
:1053CC000000000000000060006000600060006EE3
:1053DC00007F807380618061806180618073007F59
:1053EC00006E000000000000000000000000000043
:1053FC000000001E003F80738061006000608061CF
:10540C008073003F001E00000000000000008001BF
:10541C00800180018001801D803F807380618061EC
:10542C00806180618073803F801D0000000000005F
:10543C0000000000000000000000001E003F007390
:10544C008061807F807F00608071003F001E0000C3
:10545C00000000000000C007C00F000C000C807F93
:10546C00807F000C000C000C000C000C000C000CDD
:10547C00000C000000000000000000000000000014
:10548C00801D803F8073806180618061806180734A
:10549C00803F801D80018063007F003E0000006023
:1054AC00006000600060006F807F807180618061AF
:1054BC00806180618061806180610000000000007B
:1054CC0000000006000600000000003E003E000642
:1054DC000006000600060006000600060006000096
:1054EC00000000000006000600000000003E003E28
:1054FC000006000600060006000600060006000670
:10550C0000060046007E003C000000600060006069
:10551C000060806100630066006C007C00760063B4
:10552C0000638061C0600000000000000000003ECD
:10553C00003E0006000600060006000600060006F7
:10554C000006000600060006000600000000000031
:10555C000000000000000000000080DDC0FFC0CE95
:10556C00C0CCC0CCC0CCC0CCC0CCC0CCC0CC00005B
:10557C000000000000000000000000000000006FB0
:10558C00807F8071806180618061806180618061D9
:10559C00806100000000000000000000000000001E
:1055AC000000001E003F807380618061806180611B
:1055BC008073003F001E000000000000000000008F
:1055CC0000000000006E007F80738061806180614C
:1055DC0080618073007F006E00600060006000607E
:1055EC000000000000000000801D803F807380617F
:1055FC008061806180618073803F801D80018001AB
:10560C008001800100000000000000000000006725
:10561C00803F003900300030003000300030003066
:10562C00003000000000000000000000000000003E
:10563C000000001E803F80610060007F803F800181
:10564C008061007F001E00000000000000000000D0
:10565C00000800180018007F007F001800180018C0
:10566C00001800180018801F800F000000000000B8
:10567C00000000000000000000008061806180617B
:10568C0080618061806180618063807F803D0000EB
:10569C000000000000000000000000000000C060DE
:1056AC00803180318031001B001B001B000E000E6E
:1056BC0000060000000000000000000000000000D8
:1056CC00000080DD80DD80DD005500550055007741
:1056DC000077002200220000000000000000000003
:1056EC00000000000000806100330033001E000C3D
:1056FC00000C001E0033003380610000000000002D
:10570C0000000000000000008061806180310033E7
:10571C000033001B001B001B000E000E000E001CB3
:10572C00007C007000000000000000000000C07F42
:10573C00C07F800100030006000C00180030C07F01
:10574C00C07F0000000000008003800700060006F8
:10575C00000600060006000E001C001C000E0006D1
:10576C0000060006000600068007800300060006FF
:10577C0000060006000600060006000600060006ED
:10578C0000060006000600060006000600060006DD
:10579C000038003C000C000C000C000C000C000E3F
:1057AC0000070007000E000C000C000C000C000C95
:1057BC00003C003800000000000000000000000069
:1057CC0000008038807F00470000000000000000CF
:1057DC0000000000000000000000000000000000BD
:1057EC00000000000000000000000000001000108D
:1057FC00001000100010001000000010000000004D
:10580C000028002800280000000000000000000014
:10581C000000000000240024007C00240048007CD0
:10582C0000480048000000000038005400500038C8
:10583C0000140054005400380010000000200054E4
:10584C00005800300028005400140008000000002C
:10585C0000100028002800100034004800480034D4
:10586C0000000000001000100010000000000000FC
:10587C0000000000000000000008001000200020C4
:10588C000020002000200020001000080020001044
:10589C00000800080008000800080008001000209C
:1058AC00001000380010002800000000000000006C
:1058BC00000000000000000000100010007C001030
:1058CC0000100000000000000000000000000000BC
:1058DC00000000000000001000100010000000008C
:1058EC000000000000000038000000000000000074
:1058FC00000000000000000000000000000000108C
:10590C00000000000008000800100010001000103B
:10591C000020002000000000003800440044005427
:10592C000044004400440038000000000010003027
:10593C0000500010001000100010001000000000BB
:10594C000038004400440004000800100020007CD3
:10595C00000000000038004400040018000400049B
:10596C00004400380000000000080018002800283F
:10597C000048007C0008000800000000007C00408B
:10598C0000400078000400040044003800000000CF
:10599C0000380044004000780044004400440038C3
:1059AC0000000000007C0004000800100010002023
:1059BC0000200020000000000038004400440038A3
:1059CC00004400440044003800000000003800444B
:1059DC0000440044003C0004004400380000000077
:1059EC00000000000010000000000000000000108B
:1059FC00000000000000000000000010000000008B
:105A0C00000000100010001000000000000C00301E
:105A1C0000400030000C00000000000000000000FE
:105A2C000000007C0000007C000000000000000072
:105A3C000000000000600018000400180060000066
:105A4C0000000000003800440004000800100010A2
:105A5C00000000100000000000380044004C00540E
:105A6C00005C0040004000380000000000100028DE
:105A7C00002800280028007C00440044000000009E
:105A8C00007800440044007800440044004400784E
:105A9C00000000000038004400400040004000407E
:105AAC00004400380000000000700048004400442E
:105ABC00004400440048007000000000007C0040DE
:105ACC000040007C004000400040007C00000000D2
